:100000000C9454000C94F8020C94F8020C94F8022E
:100010000C94F8020C94F8020C94F8020C94F80278
:100020000C94F8020C94F8020C94F8020C94F80268
:100030000C94F8020C94F8020C94F8020C94F80258
:100040000C94F8020C94F8020C94F8020C94F80248
:100050000C94F8020C94F8020C94F8020C94F80238
:100060000C94F8020C94F8020C94F8020C94F80228
:100070000C94F8020C94F8020C94F8020C94F80218
:100080000C94F8020C94F8020C94F8020C94F80208
:100090000C94F8020C94F8020C94F8020C94F802F8
:1000A0000C94F8020C94F80211241FBECFEFCDBFC0
:1000B000DFE7DEBF0E9460000C94C002F894FFCF1F
:1000C00080E88FBF85E88093B000E0E0F6E081E053
:1000D000848792E09087128293E09083828788EDF4
:1000E00084BF84E180936800E0E6F0E0858180FDD4
:1000F000FDCFE0E0FAE087E080838FEF9FEF86A3FB
:1001000097A380E88093010488E3809362040F2E14
:10011000C12CF6E0DF2EF02D0F2EF0E6EF2EF4E0EE
:10012000FF2EF02D00E014E0C0E0DAE00F2EF0E248
:10013000AF2EFEE4BF2EF02DF60160897189F70124
:10014000808583FF39C080E090E00E94210221E099
:100150003AE040EA5AE30E94F10228E431EE4AE62E
:1001600050E40E94CB0220E73DE34AEA5FE30E94AD
:10017000ED029F7720E030E44CE956E40E94F10262
:100180000E945E02F80184818F7784839501261B8B
:10019000370B88A199A128173907D8F718A219A2F7
:1001A000F80184818068848388A199A16817790700
:1001B000D8F718A219A2C0CFF80184818F77848361
:0201C000BBCFB3
:1001C20010C00E94D90258F00E94D20240F029F4D5
:1001D2005F3F29F00C94E70251110C94E1020C9458
:1001E200F5020E948D0268F39923B1F3552391F32E
:1001F200951B550BBB27AA2762177307840738F094
:100202009F5F5F4F220F331F441FAA1FA9F335D0F0
:100212000E2E3AF0E0E832D091505040E695001CA4
:10022200CAF72BD0FE2F29D0660F771F881FBB1F5E
:10023200261737074807AB07B0E809F0BB0B802D3C
:10024200BF01FF2793585F4F3AF09E3F510578F068
:100252000C94E7020C94E1025F3FE4F3983ED4F37E
:10026200869577956795B795F7959F5FC9F7880F3C
:10027200911D9695879597F90895E1E0660F771F8E
:10028200881FBB1F621773078407BA0720F0621B1F
:0E029200730B840BBA0BEE1F88F7E0950895EE
:1002A0000FC00E94D20238F00E94D90220F095239C
:1002B00011F00C94E7020C94F50211240C94E10265
:1002C0000E948D0270F3959FC1F3950F50E0551F6A
:1002D000629FF001729FBB27F00DB11D639FAA279B
:1002E000F00DB11DAA1F649F6627B00DA11D661FEA
:1002F000829F2227B00DA11D621F739FB00DA11D0B
:10030000621F839FA00D611D221F749F3327A00DC4
:10031000611D231F849F600D211D822F762F6A2F60
:1003200011249F5750409AF0F1F088234AF0EE0FC5
:10033000FF1FBB1F661F771F881F91505040A9F7F2
:100340009E3F510580F00C94E7020C94E1025F3F60
:10035000E4F3983ED4F3869577956795B795F7952E
:10036000E7959F5FC1F7FE2B880F911D96958795A6
:0403700097F908955C
:1003740011C00E94D20238F00E94D90220F039F450
:100384009F3F19F426F40C94F5020EF4E095E7FB74
:100394000C94E702E92F0E948D0258F3BA17620702
:1003A40073078407950720F079F4A6F50C94E0020E
:1003B4000EF4E0950B2EBA2FA02D0B01B90190017C
:1003C4000C01CA01A0011124FF27591B99F0593FC0
:1003D40050F4503E68F11A16F040A22F232F342F08
:1003E4004427585FF3CF469537952795A795F04056
:1003F4005395C9F77EF41F16BA0B620B730B840B6B
:10040400BAF09150A1F0FF0FBB1F661F771F881F22
:10041400C2F70EC0BA0F621F731F841F48F487957A
:1004240077956795B795F7959E3F08F0B0CF93956C
:0E043400880F08F09927EE0F97958795089589
:10044200E89409C097FB3EF490958095709561956C
:100452007F4F8F4F9F4F9923A9F0F92F96E9BB2722
:100462009395F695879577956795B795F111F8CF9E
:10047200FAF4BB0F11F460FF1BC06F5F7F4F8F4F09
:100482009F4F16C0882311F096E911C0772321F0FF
:100492009EE8872F762F05C0662371F096E8862F97
:1004A20070E060E02AF09A95660F771F881FDAF7EE
:0A04B200880F9695879597F9089535
:1004BC000E94950288F09F5798F0B92F9927B75151
:1004CC00B0F0E1F0660F771F881F991F1AF0BA95EC
:1004DC00C9F714C0B13091F00E94E002B1E0089568
:1004EC000C94E002672F782F8827B85F39F0B93F5A
:1004FC00CCF3869577956795B395D9F73EF490959F
:0E050C008095709561957F4F8F4F9F4F08959A
:10051A0057FD9058440F551F59F05F3F71F04795AA
:10052A00880F97FB991F61F09F3F79F0879508958F
:10053A00121613061406551FF2CF4695F1DF08C0AE
:10054A00161617061806991FF1CF869571056105CB
:04055A000894089564
:10055E00092E0394000C11F4882352F0BB0F40F4C3
:10056E00BF2B11F460FF04C06F5F7F4F8F4F9F4F03
:02057E000895DE
:10058000EC010E94FD020E94FC02CE010E94FE02CC
:06059000CE010E94FA02F8
:0E0596005058BB27AA270E94BA010C94AF024E
:0E05A40000240A941616170618060906089574
:0E05B20000240A941216130614060506089576
:0E05C000E894BB2766277727CB0197F90895AB
:0C05CE0097F99F6780E870E060E00895F6
:0805DA000E94E1000C94AF0245
:0805E2000E9450010C94AF02CD
:0605EA009FEF80EC089574
:0405F0000C94000067
:0405F4000E945E0003
:0205F800089564
:0205FA00089562
:0205FC00089560
:00000001FF
