:100000000C9454000C94FD000C94FD000C94FD0025
:100010000C94FD000C94FD000C94FD000C94FD006C
:100020000C94FD000C94FD000C94FD000C94FD005C
:100030000C94FD000C94FD000C94FD000C94FD004C
:100040000C94FD000C94FD000C94FD000C94FD003C
:100050000C94FD000C94FD000C94FD000C94FD002C
:100060000C94FD000C94FD000C94FD000C94FD001C
:100070000C94FD000C94FD000C94FD000C94FD000C
:100080000C94FD000C94FD000C94FD000C94FD00FC
:100090000C94FD000C94FD000C94FD000C94FD00EC
:1000A0000C94FD000C94FD0011241FBECFEFCDBFBA
:1000B000DFE7DEBF0E9460000C94F200F894FFCFEF
:1000C00080E88FBF85E88093B000E0E0F6E081E053
:1000D000848792E09087128293E090838287809356
:1000E000010488ED84BF84E180936800E0E6F0E0DD
:1000F000858180FDFDCFE0E0FAE087E080838FEF2F
:100100009FEF86A397A30F2EE12CF6E0FF2EF02D94
:1001100000E014E0C0E0DAE00F2EF0E88F2EF6E900
:100120009F2EF8E9AF2EB12CF02DF701858580FFC9
:1001300002C0C088D188C6010E94BF00F801248196
:100140002E7F248324013501481A590A6108710859
:1001500048A159A160E070E044165506660677068E
:10016000BCF718A219A2F80124812160248328A1D8
:0E01700039A182179307D8F718A219A2D6CF8B
:10017E0024E6AC01249FC001259F900D1124892FE8
:10018E00992782958F7024E630E0281B390B36951F
:10019E00279536952795ABE7B4E10E94E300969537
:1001AE00879520E836E9AC01429FC001439F900D30
:0801BE00529F900D11240895D9
:1001C600A29FB001B39FC001A39F700D811D112492
:0E01D600911DB29F700D811D1124911D089581
:1001E400EC010E9402010E940101CE010E94030160
:0601F400CE010E94FF0095
:0401FA000C94000061
:0401FE000E945E00FD
:0202020008955D
:0202040008955B
:02020600089559
:00000001FF
