:100000000C9454000C94EC010C94EC010C94EC0155
:100010000C94EC010C94EC010C94EC010C94EC01AC
:100020000C94EC010C94EC010C94EC010C94EC019C
:100030000C94EC010C94EC010C94EC010C94EC018C
:100040000C94EC010C94EC010C94EC010C94EC017C
:100050000C94EC010C94EC010C94EC010C94EC016C
:100060000C94EC010C94EC010C94EC010C94EC015C
:100070000C94EC010C94EC010C94EC010C94EC014C
:100080000C94EC010C94EC010C94EC010C94EC013C
:100090000C94EC010C94EC010C94EC010C94EC012C
:1000A0000C94EC010C94EC0111241FBECFEFCDBFDA
:1000B000DFE7DEBF0E94CA000C94BA01F894FFCFBC
:1000C0000FC00E94C50138F00E94CC0120F095239A
:1000D00011F00C94DA010C94E90111240C94D40170
:1000E0000E94870170F3959FC1F3950F50E0551F53
:1000F000629FF001729FBB27F00DB11D639FAA277D
:10010000F00DB11DAA1F649F6627B00DA11D661FCB
:10011000829F2227B00DA11D621F739FB00DA11DEC
:10012000621F839FA00D611D221F749F3327A00DA6
:10013000611D231F849F600D211D822F762F6A2F42
:1001400011249F5750409AF0F1F088234AF0EE0FA7
:10015000FF1FBB1F661F771F881F91505040A9F7D4
:100160009E3F510580F00C94DA010C94D4015F3F5E
:10017000E4F3983ED4F3869577956795B795F79510
:10018000E7959F5FC1F7FE2B880F911D9695879588
:0401900097F908953E
:1001940080E88FBF85E88093B000E0E0F6E081E07E
:1001A400848792E09087128293E09083828788ED1F
:1001B40084BF84E180936800E0E6F0E0858180FDFF
:1001C400FDCFE0E0FAE087E080838FEF9FEF86A326
:1001D40097A380E8809301040F2EE12CF6E0FF2E14
:1001E400F02D00E014E0C0E0DAE0F70160897189E5
:1001F40080E090E00E94260121E03AE040EA5AE3E0
:100204000E94E50120E030E040E850E40E94E00173
:100214001816BCF4F80184818F77848388A199A18E
:1002240089389341D8F318A219A2F801848180680F
:10023400848388A199A189399A43D8F318A219A271
:08024400D4CFF8011482D1CFE0
:10024C00E89409C097FB3EF4909580957095619564
:10025C007F4F8F4F9F4F9923A9F0F92F96E9BB271A
:10026C009395F695879577956795B795F111F8CF96
:10027C00FAF4BB0F11F460FF1BC06F5F7F4F8F4F01
:10028C009F4F16C0882311F096E911C0772321F0F7
:10029C009EE8872F762F05C0662371F096E8862F8F
:1002AC0070E060E02AF09A95660F771F881FDAF7E6
:0A02BC00880F9695879597F908952D
:1002C600990F0008550FAA0BE0E8FEEF1616170661
:1002D600E807F907C0F012161306E407F50798F0C9
:1002E600621B730B840B950B39F40A2661F0232BE2
:1002F600242B252B21F408950A2609F4A140A6955E
:080306008FEF811D811D089598
:10030E0057FD9058440F551F59F05F3F71F04795B8
:10031E00880F97FB991F61F09F3F79F0879508959D
:10032E00121613061406551FF2CF4695F1DF08C0BC
:10033E00161617061806991FF1CF869571056105D9
:04034E000894089572
:10035200092E0394000C11F4882352F0BB0F40F4D1
:10036200BF2B11F460FF04C06F5F7F4F8F4F9F4F11
:020372000895EC
:10037400EC010E94F1010E94F001CE010E94F20101
:06038400CE010E94EE0113
:0E038A0000240A941616170618060906089590
:0E03980000240A941216130614060506089592
:0E03A600E894BB2766277727CB0197F90895C7
:0C03B40097F99F6780E870E060E0089512
:0A03C0000E94630108F48FEF089516
:0803CA000E9460000C94A901DF
:0603D2009FEF80EC08958E
:0403D8000C94000081
:0403DC000E945E001D
:0203E00008957E
:0203E20008957C
:0203E40008957A
:00000001FF
