:100000000C9454000C94D6020C94D6020C94D60294
:100010000C94D6020C94D6020C94D6020C94D60200
:100020000C94D6020C94D6020C94D6020C94D602F0
:100030000C94D6020C94D6020C94D6020C94D602E0
:100040000C94D6020C94D6020C94D6020C94D602D0
:100050000C94D6020C94D6020C94D6020C94D602C0
:100060000C94D6020C94D6020C94D6020C94D602B0
:100070000C94D6020C94D6020C94D6020C94D602A0
:100080000C94D6020C94D6020C94D6020C94D60290
:100090000C94D6020C94D6020C94D6020C94D60280
:1000A0000C94D6020C94D60211241FBECFEFCDBF04
:1000B000DFE7DEBF0E9447020C949702F894FFCF5F
:1000C0008F929F92AF92BF92CF92DF92EF92FF9268
:1000D000CF93DF93609110067091110680E090E05D
:1000E0000E94C40121E03AE040EA5AE30E94CF02B4
:1000F00020E030E040E450E40E94A2026B017C0169
:1001000020E030E0A9010E94CA0288234CF020E0E0
:1001100030E040E05FE3C701B6010E94CF0204C0B7
:100120006DEC7CEC8CEC9DE320E030E44CE955E494
:100130000E94CF026B017C018091080483FD08C0FE
:100140008091080484FD04C08091080485FF3BC0B1
:10015000E0E0F4E084818F778483C0E0DAE068A196
:1001600079A180E090E00E94C4014B015C01A701ED
:10017000960160E070E48CE995E40E94A2029B0184
:10018000AC01C501B4010E94CA02181644F71092CE
:10019000200A1092210AE0E0F4E0848180688483E0
:1001A000C0E0DAE068A179A180E090E00E94C4019B
:1001B000A70196010E94CA021816A4F71092200AFD
:1001C0001092210A05C0E0E0F4E084818F778483F7
:1001D000DF91CF91FF90EF90DF90CF90BF90AF90E5
:0601E0009F908F9008952E
:1001E6000FC00E94A90238F00E94B00220F09523A9
:1001F60011F00C94C4020C94D30211240C94B8028E
:100206000E94250270F3959FC1F3950F50E0551F8C
:10021600629FF001729FBB27F00DB11D639FAA2755
:10022600F00DB11DAA1F649F6627B00DA11D661FA4
:10023600829F2227B00DA11D621F739FB00DA11DC5
:10024600621F839FA00D611D221F749F3327A00D7F
:10025600611D231F849F600D211D822F762F6A2F1B
:1002660011249F5750409AF0F1F088234AF0EE0F80
:10027600FF1FBB1F661F771F881F91505040A9F7AD
:100286009E3F510580F00C94C4020C94B8025F3F67
:10029600E4F3983ED4F3869577956795B795F795E9
:1002A600E7959F5FC1F7FE2B880F911D9695879561
:0402B60097F9089517
:1002BA0011C00E94A90238F00E94B00220F039F45D
:1002CA009F3F19F426F40C94D3020EF4E095E7FB51
:1002DA000C94C402E92F0E94250258F3BA17620748
:1002EA0073078407950720F079F4A6F50C94B702F2
:1002FA000EF4E0950B2EBA2FA02D0B01B901900137
:10030A000C01CA01A0011124FF27591B99F0593F7A
:10031A0050F4503E68F11A16F040A22F232F342FC2
:10032A004427585FF3CF469537952795A795F04010
:10033A005395C9F77EF41F16BA0B620B730B840B25
:10034A00BAF09150A1F0FF0FBB1F661F771F881FDD
:10035A00C2F70EC0BA0F621F731F841F48F4879535
:10036A0077956795B795F7959E3F08F0B0CF939527
:0E037A00880F08F09927EE0F97958795089544
:10038800E89409C097FB3EF4909580957095619527
:100398007F4F8F4F9F4F9923A9F0F92F96E9BB27DD
:1003A8009395F695879577956795B795F111F8CF59
:1003B800FAF4BB0F11F460FF1BC06F5F7F4F8F4FC4
:1003C8009F4F16C0882311F096E911C0772321F0BA
:1003D8009EE8872F762F05C0662371F096E8862F52
:1003E80070E060E02AF09A95660F771F881FDAF7A9
:0A03F800880F9695879597F90895F0
:10040200990F0008550FAA0BE0E8FEEF1616170623
:10041200E807F907C0F012161306E407F50798F08B
:10042200621B730B840B950B39F40A2661F0232BA4
:10043200242B252B21F408950A2609F4A140A69520
:080442008FEF811D811D08955B
:10044A0057FD9058440F551F59F05F3F71F047957B
:10045A00880F97FB991F61F09F3F79F08795089560
:10046A00121613061406551FF2CF4695F1DF08C07F
:10047A00161617061806991FF1CF8695710561059C
:04048A000894089535
:10048E000E9487020E946302E0E0F4E080E881832C
:10049E0088E78283C0E0D4E0888586FD03C00E9491
:1004AE00BE02FACFE12CF12C8701A8019701C801F9
:0804BE00B7010E946000F0CFBD
:1004C60088ED84BF84E180936800E0E6F0E08581F2
:1004D60080FDFDCFE0E0FAE087E080838FEF9FEFBD
:0604E60086A397A3089510
:1004EC00092E0394000C11F4882352F0BB0F40F436
:1004FC00BF2B11F460FF04C06F5F7F4F8F4F9F4F76
:02050C00089550
:10050E0080E88FBF85E88093B000E0E0F6E081E000
:10051E00848792E09087128293E090838287089579
:10052E00EC010E94DB020E94DA02CE010E94DC0284
:06053E00CE010E94D8026C
:0E0544005058BB27AA270E945D010C94760236
:0E05520000240A9416161706180609060895C6
:0E05600000240A9412161306140605060895C8
:0E056E00E894BB2766277727CB0197F90895FD
:0C057C00E0E0F4E084818068848308954E
:0C05880097F99F6780E870E060E008953C
:0A0594000E94010208F481E00895BE
:08059E000E94F3000C947602A8
:0605A6009FEF80EC0895B8
:0405AC000C940000AB
:0405B0000E945E0047
:0205B4000895A8
:0205B6000895A6
:0205B8000895A4
:00000001FF
