:100000000C9454000C949F000C949F000C949F003F
:100010000C949F000C949F000C949F000C949F00E4
:100020000C949F000C949F000C949F000C949F00D4
:100030000C949F000C949F000C949F000C949F00C4
:100040000C949F000C949F000C949F000C949F00B4
:100050000C949F000C949F000C949F000C949F00A4
:100060000C949F000C949F000C949F000C949F0094
:100070000C949F000C949F000C949F000C949F0084
:100080000C949F000C949F000C949F000C949F0074
:100090000C949F000C949F000C949F000C949F0064
:1000A0000C949F000C949F0011241FBECFEFCDBF76
:1000B000DFE7DEBF0E9460000C949400F894FFCF4D
:1000C00088ED84BF84E180936800E0E6F0E08581FC
:1000D00080FDFDCFE0E0FAE087E080838FEF9FEFC7
:1000E00086A397A380E880930104A0E0B4E014966F
:1000F0008C9114978F7714968C93149780A191A16B
:1001000089389341D8F310A211A214968C911497B8
:10011000806814968C93149780A191A189399A4391
:08012000D8F310A211A2E3CFF5
:10012800EC010E94A4000E94A300CE010E94A50039
:06013800CE010E94A100AF
:04013E000C9400001D
:040142000E945E00B9
:0201460008951A
:02014800089518
:02014A00089516
:00000001FF
