:100000000C9454000C9489020C9489020C9489027B
:100010000C9489020C9489020C9489020C94890234
:100020000C9489020C9489020C9489020C94890224
:100030000C9489020C9489020C9489020C94890214
:100040000C9489020C9489020C9489020C94890204
:100050000C9489020C9489020C9489020C948902F4
:100060000C9489020C9489020C9489020C948902E4
:100070000C9489020C9489020C9489020C948902D4
:100080000C9489020C9489020C9489020C948902C4
:100090000C9489020C9489020C9489020C948902B4
:1000A0000C9489020C94890211241FBECFEFCDBF9E
:1000B000DFE7DEBF0E9439010C945802F894FFCFAD
:1000C00010C00E946A0258F00E94630240F029F4B6
:1000D0005F3F29F00C94780251110C9472020C9439
:1000E00086020E94020268F39923B1F3552391F32B
:1000F000951B550BBB27AA2762177307840738F097
:100100009F5F5F4F220F331F441FAA1FA9F335D0F3
:100110000E2E3AF0E0E832D091505040E695001CA7
:10012000CAF72BD0FE2F29D0660F771F881FBB1F61
:10013000261737074807AB07B0E809F0BB0B802D3F
:10014000BF01FF2793585F4F3AF09E3F510578F06B
:100150000C9478020C9472025F3FE4F3983ED4F35F
:10016000869577956795B795F7959F5FC9F7880F3F
:10017000911D9695879597F90895E1E0660F771F91
:10018000881FBB1F621773078407BA0720F0621B22
:0E019000730B840BBA0BEE1F88F7E0950895F1
:10019E000FC00E94630238F00E946A0220F095237D
:1001AE0011F00C9478020C94860211240C947202B5
:1001BE000E94020270F3959FC1F3950F50E0551FF8
:1001CE00629FF001729FBB27F00DB11D639FAA279E
:1001DE00F00DB11DAA1F649F6627B00DA11D661FED
:1001EE00829F2227B00DA11D621F739FB00DA11D0E
:1001FE00621F839FA00D611D221F749F3327A00DC8
:10020E00611D231F849F600D211D822F762F6A2F63
:10021E0011249F5750409AF0F1F088234AF0EE0FC8
:10022E00FF1FBB1F661F771F881F91505040A9F7F5
:10023E009E3F510580F00C9478020C9472025F3F41
:10024E00E4F3983ED4F3869577956795B795F79531
:10025E00E7959F5FC1F7FE2B880F911D96958795A9
:04026E0097F908955F
:100272000E9448020E94240280E88093010488E3DD
:10028200809362040F2EC12CF6E0DF2EF02D0F2E8C
:10029200F0E6EF2EF4E0FF2EF02D00E014E0C0E0D7
:1002A200DAE00F2EF0E1AF2EF7E2BF2EF02DF601CD
:1002B20060897189F701808583FF32C080E090E018
:1002C2000E94960121E03AE040EA5AE30E9482024B
:1002D20020E030E040EA50E40E947E0220E030E478
:1002E2004CE156E40E9482020E94D301F80184810B
:1002F2008F7784839501261B370B88A199A1281734
:100302003907D8F718A219A2F8018481806884837A
:1003120088A199A168177907D8F718A219A2C7CF9F
:0A032200F80184818F778483C2CF35
:10032C00E89409C097FB3EF4909580957095619583
:10033C007F4F8F4F9F4F9923A9F0F92F96E9BB2739
:10034C009395F695879577956795B795F111F8CFB5
:10035C00FAF4BB0F11F460FF1BC06F5F7F4F8F4F20
:10036C009F4F16C0882311F096E911C0772321F016
:10037C009EE8872F762F05C0662371F096E8862FAE
:10038C0070E060E02AF09A95660F771F881FDAF705
:0A039C00880F9695879597F908954C
:1003A6000E940A0288F09F5798F0B92F9927B751F3
:1003B600B0F0E1F0660F771F881F991F1AF0BA9503
:1003C600C9F714C0B13091F00E947102B1E00895EE
:1003D6000C947102672F782F8827B85F39F0B93FE0
:1003E600CCF3869577956795B395D9F73EF49095B6
:0E03F6008095709561957F4F8F4F9F4F0895B2
:1004040057FD9058440F551F59F05F3F71F04795C1
:10041400880F97FB991F61F09F3F79F087950895A6
:10042400121613061406551FF2CF4695F1DF08C0C5
:10043400161617061806991FF1CF869571056105E2
:04044400089408957B
:1004480088ED84BF84E180936800E0E6F0E0858170
:1004580080FDFDCFE0E0FAE087E080838FEF9FEF3B
:0604680086A397A308958E
:10046E00092E0394000C11F4882352F0BB0F40F4B4
:10047E00BF2B11F460FF04C06F5F7F4F8F4F9F4FF4
:02048E000895CF
:1004900080E88FBF85E88093B000E0E0F6E081E07F
:1004A000848792E09087128293E0908382870895F8
:1004B000EC010E948E020E948D02CE010E948F02EA
:0604C000CE010E948B0238
:0E04C60000240A941616170618060906089553
:0E04D40000240A941216130614060506089555
:0E04E200E894BB2766277727CB0197F908958A
:0C04F00097F99F6780E870E060E00895D5
:0804FC000E9460000C9437021D
:080504000E94CF000C943702A5
:06050C009FEF80EC089552
:040512000C94000045
:040516000E945E00E1
:02051A00089542
:02051C00089540
:02051E0008953E
:00000001FF
